:020000040000FA
:100000000C9435000C945D000C945D000C945D0024
:100010000C945D000C945D000C945D000C945D00EC
:100020000C945D000C945D000C945D000C945D00DC
:100030000C945D000C945D000C945D000C945D00CC
:100040000C9479020C945D000C94E9020C94C302A8
:100050000C945D000C945D000C945D000C945D00AC
:100060000C945D000C945D00A30411241FBECFEF1F
:10007000D8E0DEBFCDBF21E0A2E3B1E001C01D9218
:10008000AC3DB207E1F711E0A0E0B1E0E2E0FEE054
:1000900002C005900D92A233B107D9F710E0C5E375
:1000A000D0E004C02197FE010E940705C433D107A8
:1000B000C9F70E941B030C94FF060C9400000895DE
:1000C000AF92BF92CF92DF92EF92FF920F931F9366
:1000D000CF93DF936C017B018B01040F151FEB01A4
:1000E0005E01AE18BF08C017D10759F06991D6015B
:1000F000ED91FC910190F081E02DC6010995892BCD
:1001000079F7C501DF91CF911F910F91FF90EF908B
:10011000DF90CF90BF90AF900895FC01538D448D38
:10012000252F30E0842F90E0821B930B541710F0A2
:10013000CF96089501970895FC01918D828D9817AF
:1001400061F0A28DAE0FBF2FB11D5D968C91928D87
:100150009F5F9F73928F90E008958FEF9FEF0895B8
:100160002FB7F8948091370190913801A09139010F
:10017000B0913A012FBF8093430190934401A09323
:100180004501B09346018BE391E00E949C0097FFEC
:1001900026C02FB7F8948091370190913801A09133
:1001A0003901B0913A012FBF409143015091440170
:1001B0006091450170914601841B950BA60BB70B0E
:1001C00040913F0150914001609141017091420185
:1001D00084179507A607B707B0F28FEF9FEF089532
:1001E000FC01918D828D981731F0828DE80FF11D01
:1001F000858D90E008958FEF9FEF0895FC01918D1C
:10020000228D892F90E0805C9F4F821B91098F7314
:10021000992708958BE391E00E94FE0021E0892B4D
:1002200009F420E0822F089580E090E0892B29F0E6
:100230000E940A0181110C9400000895FC01A48D14
:10024000A80FB92FB11DA35ABF4F2C91848D90E0F8
:1002500001968F739927848FA689B7892C93A089DB
:10026000B1898C91837080648C93938D848D981365
:1002700006C00288F389E02D80818F7D80830895F8
:10028000EF92FF920F931F93CF93DF93EC0181E0E6
:10029000888F9B8D8C8D98131AC0E889F98980818D
:1002A00085FF15C09FB7F894EE89FF896083E889C0
:1002B000F98980818370806480839FBF81E090E0B2
:1002C000DF91CF911F910F91FF90EF900895F62E3F
:1002D0000B8D10E00F5F1F4F0F731127E02E8C8DD9
:1002E0008E110CC00FB607FCFACFE889F98980811E
:1002F00085FFF5CFCE010E941E01F1CFEB8DEC0FF3
:10030000FD2FF11DE35AFF4FF0829FB7F8940B8F3A
:10031000EA89FB8980818062CFCFCF93DF93EC01A4
:10032000888D8823B9F0AA89BB89E889F9898C91DD
:1003300085FD03C0808186FD0DC00FB607FCF7CF99
:100340008C9185FFF2CF808185FFEDCFCE010E9499
:100350001E01E9CFDF91CF910895FC016081718189
:100360006115710561F0FB0101900020E9F73197FB
:10037000AF01461B570B8BE391E00E94600042E007
:1003800050E068E171E08BE391E00E9460008BE354
:1003900091E00C948D01FC0180819181009711F016
:1003A0000C94A90508950F931F93CF93DF93EC014D
:1003B00088819981009759F02A813B812617370758
:1003C00030F081E0DF91CF911F910F9108958B0163
:1003D0006F5F7F4F0E943206009759F099838883A0
:1003E0001B830A832C813D81232B59F7FC0110824A
:1003F000E8CF80E0E7CFEF92FF920F931F93CF9368
:10040000DF93EC017B01FB0101900020E9F73197BC
:10041000E61BF70BA1F00C811D810E0F1F1FB80109
:100420000E94D30128813981882389F08C819D81A4
:10043000B701820F931F0E94F8061D830C83CE0123
:10044000DF91CF911F910F91FF90EF9008952115AB
:10045000310519F0C9010E94A905198218821D826F
:100460001C821B821A82EBCFEF92FF920F931F9395
:10047000CF93DF93EC017B018A01BA010E94D30183
:1004800028813981811114C02115310519F0C90164
:100490000E94A905198218821D821C821B821A8261
:1004A000CE01DF91CF911F910F91FF90EF900895B2
:1004B0001D830C83B701C9010E94F806F1CFFB012F
:1004C000DC0111961C921E9213961C921E9212979A
:1004D00015961C921E9214978617970749F0608113
:1004E00071816115710521F0448155810C943402AC
:1004F00008951F920F920FB60F9211242F933F93DE
:100500008F939F93AF93BF93809137019091380160
:10051000A0913901B0913A013091360123E0230FC7
:100520002D3758F50196A11DB11D209336018093FA
:10053000370190933801A0933901B0933A0180912B
:10054000320190913301A0913401B09135010196AF
:10055000A11DB11D8093320190933301A09334010A
:10056000B0933501BF91AF919F918F913F912F91A2
:100570000F900FBE0F901F90189526E8230F02963C
:10058000A11DB11DD2CF1F920F920FB60F92112451
:100590002F933F934F935F936F937F938F939F938B
:1005A000AF93BF93EF93FF938BE391E00E941E0103
:1005B000FF91EF91BF91AF919F918F917F916F913B
:1005C0005F914F913F912F910F900FBE0F901F9011
:1005D00018951F920F920FB60F9211242F938F939D
:1005E0009F93EF93FF93E0914B01F0914C01808139
:1005F000E0915101F091520182FD1BC090818091E8
:1006000054018F5F8F7320915501821741F0E09163
:100610005401F0E0E55CFE4F958F80935401FF910B
:10062000EF919F918F912F910F900FBE0F901F9080
:1006300018958081F4CFCF93DF93CDB7DEB7629763
:100640000FB6F894DEBF0FBECDBF789484B582603C
:1006500084BD84B5816084BD85B5826085BD85B566
:10066000816085BD80916E00816080936E001092E4
:10067000810080918100826080938100809181005F
:1006800081608093810080918000816080938000F0
:100690008091B10084608093B1008091B00081604E
:1006A0008093B00080917A00846080937A0080917A
:1006B0007A00826080937A0080917A0081608093D2
:1006C0007A0080917A00806880937A001092C1004D
:1006D000E0914B01F0914C0182E08083E091470171
:1006E000F09148011082E0914901F0914A0180E1C6
:1006F000808310925301E0914F01F091500186E008
:100700008083E0914D01F0914E0180818061808372
:10071000E0914D01F0914E01808188608083E091ED
:100720004D01F0914E01808180688083E0914D0100
:10073000F0914E0180818F7D808381E090E0A0E088
:10074000B0E080933F0190934001A0934101B093AA
:1007500042018BE391E00E94FE00181619068CF509
:100760008BE391E00E948D011A8219821C821B8208
:100770001E821D8250E040E06AE171E0CE010196E8
:100780000E9434020E94B00097FD1BC08F83188620
:100790000D811E810F5F1F4FB801CE0101960E948F
:1007A000D301882379F329813A818D819E81BE010D
:1007B000695F7F4F820F931F0E94F8061E830D838F
:1007C000E1CFCE0101960E94CB011A8219821C82D0
:1007D0001B821E821D8241E050E062E271E0CE0188
:1007E00001960E943402CE0101960E94AD01CE0115
:1007F00001960E94CB0100E010E01E861D86188A3B
:100800001F861A8A198A45E050E06BE171E0CE013B
:100810000D960E943402BE01635F7F4FCE010196A8
:100820000E945F0261E271E0CE0101960E94FB012D
:10083000BC01CE0107960E945F02CE0107960E947E
:10084000AD01CE0107960E94CB01CE0101960E9418
:10085000CB01CE010D960E94CB011E861D86188A03
:100860001F861A8A198A45E050E064E271E0CE01E1
:100870000D960E943402BE01635F7F4FCE01019648
:100880000E945F026AE271E0CE0101960E94FB01C4
:10089000BC01CE0107960E945F02CE0107960E941E
:1008A000AD01CE0107960E94CB01CE0101960E94B8
:1008B000CB01CE010D960E94CB011A8219821C82B7
:1008C0001B821E821D8243E050E06DE271E0CE018A
:1008D00001960E943402CE0101960E94AD01CE0124
:1008E00001960E94CB018BE391E00E948D01E09183
:1008F0004D01F0914E0180818F7E8083E0914D010A
:10090000F0914E018081877F8083E0914D01F091CD
:100910004E0180818F778083E0914D01F0914E01EF
:1009200080818F7D808380915501809354010115D2
:10093000110509F462CF0E940A01882309F45DCFF2
:100940000E9400005ACFEBE3F1E01382128288EE9E
:1009500093E0A0E0B0E084839583A683B7838AE028
:1009600091E09183808385EC90E09587848784EC87
:1009700090E09787868780EC90E0918B808B81EC6C
:1009800090E0938B828B82EC90E0958B848B86EC4D
:1009900090E0978B868B118E128E138E148E089595
:1009A0002F923F924F925F926F927F928F929F927F
:1009B000AF92BF92CF92DF92EF92FF920F931F936D
:1009C000CF93DF93CDB7DEB7CA1BDB0B0FB6F8941E
:1009D000DEBF0FBECDBF09942A88398848885F845E
:1009E0006E847D848C849B84AA84B984C884DF80CF
:1009F000EE80FD800C811B81AA81B981CE0FD11DB3
:100A00000FB6F894DEBF0FBECDBFED010895EE0F17
:100A1000FF1F0590F491E02D09940F931F93CF933E
:100A2000DF938230910510F482E090E0E091DA01EA
:100A3000F091DB0130E020E0B0E0A0E0309799F4E5
:100A40002115310509F44AC0281B390B2430310522
:100A5000D8F58A819B816115710589F1FB0193832A
:100A60008283FE0111C040815181028113814817A8
:100A70005907E0F04817590799F4109761F012965A
:100A80000C93129713961C933296CF01DF91CF915E
:100A90001F910F9108950093DA011093DB01F4CFB9
:100AA0002115310551F04217530738F0A901DB0138
:100AB0009A01BD01DF01F801C1CFEF01F9CF909399
:100AC000DB018093DA01CDCFFE01E20FF31F8193AA
:100AD00091932250310939832883D7CF2091D801AF
:100AE0003091D901232B41F420910201309103016F
:100AF0003093D9012093D801209100013091010158
:100B00002115310541F42DB73EB7409104015091B4
:100B10000501241B350BE091D801F091D901E217B2
:100B2000F307A0F42E1B3F0B2817390778F0AC0110
:100B30004E5F5F4F2417350748F04E0F5F1F5093ED
:100B4000D9014093D801819391939FCFF0E0E0E0E9
:100B50009CCFCF93DF930097E9F0FC01329713828B
:100B60001282A091DA01B091DB01ED0130E020E0CA
:100B70001097A1F420813181820F931F2091D80119
:100B80003091D9012817390709F061C0F093D901D4
:100B9000E093D801DF91CF910895EA01CE17DF07E6
:100BA000E8F54A815B819E0141155105B1F7E901E4
:100BB000FB83EA8349915991C40FD51FEC17FD07B8
:100BC00061F4808191810296840F951FE9019983D8
:100BD0008883828193819B838A83F0E0E0E0129690
:100BE0008D919C9113970097B9F52D913C91119798
:100BF000CD010296820F931F2091D8013091D90127
:100C00002817390739F6309751F51092DB01109209
:100C1000DA01B093D901A093D801BCCFD383C283AA
:100C200040815181840F951FC817D90761F44E5F29
:100C30005F4F88819981480F591F518340838A8172
:100C40009B81938382832115310509F0B0CFF09306
:100C5000DB01E093DA019ECFFD01DC01C0CF1382FE
:100C60001282D7CFB0E0A0E0E8E3F6E00C94D20423
:100C70008C01009751F4CB010E940D058C01C80135
:100C8000CDB7DEB7E0E10C94EE04FC01E60FF71FF0
:100C90009C0122503109E217F30708F49DC0D901E5
:100CA000CD91DC911197C617D70798F0C530D105C3
:100CB00030F3CE0104978617970708F3C61BD70BAE
:100CC0002297C193D1936D937C93CF010E94A90584
:100CD000D6CF5B01AC1ABD0A4C018C0E9D1EA091B3
:100CE000DA01B091DB01512C412CF12CE12C109751
:100CF00031F58091D8019091D9018815990509F0B5
:100D00005CC04616570608F058C0809100019091CB
:100D10000101009741F48DB79EB7409104015091B5
:100D20000501841B950BE817F90708F055C0F093EF
:100D3000D901E093D801F90171836083A0CF8D912F
:100D40009C91119712966C90129713967C90139722
:100D5000A815B90559F56C0142E0C40ED11CCA149E
:100D6000DB0420F1AC014A195B09DA0112961597F0
:100D700080F06282738251834083D9016D937C93AA
:100D8000E114F10471F0D7011396FC93EE931297DE
:100D900076CF22968C0F9D1FF90191838083F301FA
:100DA000EFCFF093DB01E093DA0169CF48165906E3
:100DB00008F42C017D01D3019ACFCB010E940D05CF
:100DC0007C01009749F0AE01B8010E94EF06C8010E
:100DD0000E94A905870153CF10E000E050CFFB012E
:100DE000DC0102C001900D9241505040D8F70895A7
:100DF000FB01DC0101900D920020E1F70895F894C9
:100E0000FFCF0000DC018000000000004001600016
:100E10008D008D01FE009C00F0000D0A00546573EA
:100E20007431003A31005465737432003A30004531
:040E30006E640000EC
:107E0000112484B714BE81FFF0D085E080938100F7
:107E100082E08093C00088E18093C10086E0809377
:107E2000C20080E18093C4008EE0C9D0259A86E02C
:107E300020E33CEF91E0309385002093840096BBD3
:107E4000B09BFECF1D9AA8958150A9F7CC24DD24C4
:107E500088248394B5E0AB2EA1E19A2EF3E0BF2EE7
:107E6000A2D0813461F49FD0082FAFD0023811F036
:107E7000013811F484E001C083E08DD089C08234E0
:107E800011F484E103C0853419F485E0A6D080C0E4
:107E9000853579F488D0E82EFF2485D0082F10E0AE
:107EA000102F00270E291F29000F111F8ED06801E7
:107EB0006FC0863521F484E090D080E0DECF843638
:107EC00009F040C070D06FD0082F6DD080E0C81688
:107ED00080E7D80618F4F601B7BEE895C0E0D1E017
:107EE00062D089930C17E1F7F0E0CF16F0E7DF06D8
:107EF00018F0F601B7BEE89568D007B600FCFDCFD4
:107F0000A601A0E0B1E02C9130E011968C91119780
:107F100090E0982F8827822B932B1296FA010C0160
:107F200087BEE89511244E5F5F4FF1E0A038BF0790
:107F300051F7F601A7BEE89507B600FCFDCF97BE46
:107F4000E89526C08437B1F42ED02DD0F82E2BD052
:107F50003CD0F601EF2C8F010F5F1F4F84911BD097
:107F6000EA94F801C1F70894C11CD11CFA94CF0C13
:107F7000D11C0EC0853739F428D08EE10CD085E9AC
:107F80000AD08FE07ACF813511F488E018D01DD067
:107F900080E101D065CF982F8091C00085FFFCCF94
:107FA0009093C60008958091C00087FFFCCF809118
:107FB000C00084FD01C0A8958091C6000895E0E648
:107FC000F0E098E1908380830895EDDF803219F02E
:107FD00088E0F5DFFFCF84E1DECF1F93182FE3DFCA
:107FE0001150E9F7F2DF1F91089580E0E8DFEE27F6
:047FF000FF270994CA
:027FFE00040479
:00000001FF
